{
  "contractName": "ImageStore",
  "abi": [
    {
      "anonymous": false,
      "inputs": [
        {
          "indexed": false,
          "internalType": "string",
          "name": "item",
          "type": "string"
        }
      ],
      "name": "ItemAdded",
      "type": "event"
    },
    {
      "constant": false,
      "inputs": [
        {
          "internalType": "string",
          "name": "newItem",
          "type": "string"
        }
      ],
      "name": "addItem",
      "outputs": [],
      "payable": false,
      "stateMutability": "nonpayable",
      "type": "function"
    },
    {
      "constant": true,
      "inputs": [
        {
          "internalType": "uint256",
          "name": "index",
          "type": "uint256"
        }
      ],
      "name": "getListItem",
      "outputs": [
        {
          "internalType": "string",
          "name": "item",
          "type": "string"
        }
      ],
      "payable": false,
      "stateMutability": "view",
      "type": "function"
    },
    {
      "constant": true,
      "inputs": [],
      "name": "getListSize",
      "outputs": [
        {
          "internalType": "uint256",
          "name": "size",
          "type": "uint256"
        }
      ],
      "payable": false,
      "stateMutability": "view",
      "type": "function"
    }
  ],
  "bytecode": "0x608060405234801561001057600080fd5b50610443806100206000396000f3fe608060405234801561001057600080fd5b50600436106100415760003560e01c806327e9f294146100465780634a89a6c8146101015780636597441e1461011f575b600080fd5b6100ff6004803603602081101561005c57600080fd5b810190808035906020019064010000000081111561007957600080fd5b82018360208201111561008b57600080fd5b803590602001918460018302840111640100000000831117156100ad57600080fd5b91908080601f016020809104026020016040519081016040528093929190818152602001838380828437600081840152601f19601f8201169050808301925050505050505091929192905050506101c6565b005b6101096102a4565b6040518082815260200191505060405180910390f35b61014b6004803603602081101561013557600080fd5b81019080803590602001909291905050506102b0565b6040518080602001828103825283818151815260200191508051906020019080838360005b8381101561018b578082015181840152602081019050610170565b50505050905090810190601f1680156101b85780820380516001836020036101000a031916815260200191505b509250505060405180910390f35b6000819080600181540180825580915050906001820390600052602060002001600090919290919091509080519060200190610203929190610369565b50507f916dba8b3d0828ab8a4dfe3c959b0179c946497efd42ea7d105d31923d459adf816040518080602001828103825283818151815260200191508051906020019080838360005b8381101561026757808201518184015260208101905061024c565b50505050905090810190601f1680156102945780820380516001836020036101000a031916815260200191505b509250505060405180910390a150565b60008080549050905090565b6060600082815481106102bf57fe5b906000526020600020018054600181600116156101000203166002900480601f01602080910402602001604051908101604052809291908181526020018280546001816001161561010002031660029004801561035d5780601f106103325761010080835404028352916020019161035d565b820191906000526020600020905b81548152906001019060200180831161034057829003601f168201915b50505050509050919050565b828054600181600116156101000203166002900490600052602060002090601f016020900481019282601f106103aa57805160ff19168380011785556103d8565b828001600101855582156103d8579182015b828111156103d75782518255916020019190600101906103bc565b5b5090506103e591906103e9565b5090565b61040b91905b808211156104075760008160009055506001016103ef565b5090565b9056fea265627a7a72315820e3b3157aed71d27e5f929c03057fe2fdaa80ac0398088f5c29727df9d6c5f8e064736f6c63430005100032",
  "source": "pragma solidity >=0.4.22 <0.9.0;\n\n// contracts/ImageStore.sol\n\ncontract ImageStore {\n    string[] private list;\n\n    // Emitted when the stored a new item is added to the list\n    event ItemAdded(string item);\n\n    // Adds a new item in the list\n    function addItem(string memory newItem) public {\n        list.push(newItem);\n        emit ItemAdded(newItem);\n    }\n\n    // Gets the item from the list according to index\n    function getListItem(uint256 index)\n        public\n        view\n        returns (string memory item)\n    {\n        return list[index];\n    }\n    \n    // Gets the size of the list\n    function getListSize() public view returns (uint256 size) {\n        return list.length;\n    }\n}",
  "sourcePath": "/Users/garryclawson/Desktop/Project/smart_contract/contracts/ImageStore.sol",
  "compiler": {
    "name": "solc",
    "version": "0.5.16+commit.9c3226ce.Emscripten.clang"
  },
  "schemaVersion": "3.4.7",
  "updatedAt": "2022-06-05T17:00:56.191Z",
  "networkType": "ethereum",
  "devdoc": {
    "methods": {}
  },
  "userdoc": {
    "methods": {}
  }
}